:020000040000FA
:1000000000800020A5000000E5000000AF00000017
:1000100000000000000000000000000000000000E0
:10002000000000000000000000000000AF00000021
:100030000000000000000000B1000000B30000005C
:10004000B5000000B5000000B5000000B5000000DC
:10005000B5000000B5000000B5000000B5000000CC
:10006000B5000000B5000000B5000000B5000000BC
:10007000B5000000B5000000B5000000B5000000AC
:10008000B5000000B5000000B5000000B50000009C
:100090000348854600F014F8004800472B02000092
:1000A000008000200448804704480047FEE7FEE740
:1000B000FEE7FEE7FEE70000DD0100009100000022
:1000C000064C0125064E05E0E36807CC2B430C3CAB
:1000D00098471034B442F7D3FFF7DEFF3002000038
:1000E0003002000000202449897A082211400029AA
:1000F0000BD15721204A40321170A82111701E499E
:10010000897A082211431C4A917257211A4A4032B7
:100110001170A82111700521174A1181164920314B
:100120000988032252029143134A20321180124956
:10013000897A10221143104A917200210E4A4032EE
:10014000117017E00C4920318979C907C90F0029BE
:1001500001D0002000E0401C7D210901884209D91E
:100160005721054A40321170A82111700121917167
:1001700000211170E6E700000010004010B50446B1
:10018000002C0BD1572014490870A82008700020BB
:10019000114920390871104908701BE057200E4999
:1001A0000870A820087001200B4920394871087197
:1001B000002009490870012000F026F85720064960
:1001C0000870A82008700D2003492039087100200C
:1001D0000149087010BD00004010004010B55720C4
:1001E00008490870A820087088200649403908810D
:1001F0000020044908700A2000F006F80120FFF7EB
:10020000BDFF10BD4010004010B500210AE00222E1
:1002100001E000BF00BF1346541EA2B2002BF8D16C
:100220004B1C99B28142F2DB10BD002070470000E8
:040000050000009166
:00000001FF
